:020000040000FA
:020000000000FE
:06002A00956A936A8194BF
:10003000EDEC02F0380EDDEC02F0EDEC02F00E0E0D
:10004000DDEC02F0F9EC02F0010EDDEC02F0F9EC6F
:1000500002F0060EDDEC02F0F9EC02F00E0EDDEC23
:1000600002F0F9EC02F0820EDDEC02F0F9EC02F0A5
:10007000570EE5EC02F0F9EC02F0450EE5EC02F06B
:10008000F9EC02F04C0EE5EC02F0F9EC02F0430E54
:10009000E5EC02F0F9EC02F04F0EE5EC02F0F9ECC1
:1000A00002F04D0EE5EC02F0F9EC02F0450EE5EC45
:1000B00002F0F9EC02F0200EE5EC02F0F9EC02F0AF
:1000C000540EE5EC02F0F9EC02F04F0EE5EC02F014
:1000D000F9EC02F0C20EDDEC02F0F9EC02F0530E86
:1000E000E5EC02F0F9EC02F0590EE5EC02F0F9EC67
:1000F00002F0450EE5EC02F0F9EC02F0440EE5ECFE
:1001000002F0F9EC02F0200EE5EC02F0F9EC02F05E
:10011000430EE5EC02F0F9EC02F04F0EE5EC02F0D4
:10012000F9EC02F0460EE5EC02F0F9EC02F0460EB6
:10013000E5EC02F0F9EC02F0450EE5EC02F0F9EC2A
:1001400002F0450EE5EC02F0F9EC02F0EDEC02F005
:10015000EDEC02F0EDEC02F0EDEC02F0010EDDEC66
:1001600002F0F9EC02F0820EDDEC02F0F9EC02F0A4
:10017000430EE5EC02F0F9EC02F04C0EE5EC02F077
:10018000F9EC02F0490EE5EC02F0F9EC02F0430E56
:10019000E5EC02F0F9EC02F04B0EE5EC02F0F9ECC4
:1001A00002F0200EE5EC02F0F9EC02F0530EE5EC63
:1001B00002F0F9EC02F0540EE5EC02F0F9EC02F07A
:1001C000410EE5EC02F0F9EC02F0520EE5EC02F023
:1001D000F9EC02F0540EE5EC02F0F9EC02F0C20E7C
:1001E000DDEC02F0F9EC02F0530EE5EC02F0F9EC74
:1001F00002F0570EE5EC02F0F9EC02F0490EE5ECE6
:1002000002F0F9EC02F0540EE5EC02F0F9EC02F029
:10021000430EE5EC02F0F9EC02F0480EE5EC02F0DA
:10022000F9EC02F082A0FED7010EDDEC02F0F9EC51
:1002300002F0820EDDEC02F0F9EC02F0430EE5EC88
:1002400002F0F9EC02F04F0EE5EC02F0F9EC02F0EE
:10025000460EE5EC02F0F9EC02F0460EE5EC02F099
:10026000F9EC02F0450EE5EC02F0F9EC02F0450E77
:10027000E5EC02F0F9EC02F0450EE5EC02F0F9ECE9
:1002800002F0200EE5EC02F0F9EC02F04D0EE5EC88
:1002900002F0F9EC02F0410EE5EC02F0F9EC02F0AC
:1002A0004B0EE5EC02F0F9EC02F0450EE5EC02F045
:1002B000F9EC02F0520EE5EC02F0F9EC02F0C20E9D
:1002C000DDEC02F0F9EC02F0530EE5EC02F0F9EC93
:1002D00002F0540EE5EC02F0F9EC02F0410EE5EC10
:1002E00002F0F9EC02F0520EE5EC02F0F9EC02F04B
:1002F000540EE5EC02F0F9EC02F0450EE5EC02F0EC
:10030000F9EC02F0440EE5EC02F0F9EC02F0EDEC51
:1003100002F0EDEC02F0EDEC02F0EDEC02F0010E7B
:10032000DDEC02F0F9EC02F0820EDDEC02F0F9EC0B
:1003300002F0530EE5EC02F0F9EC02F0450EE5ECAC
:1003400002F0F9EC02F04C0EE5EC02F0F9EC02F0F0
:10035000450EE5EC02F0F9EC02F0430EE5EC02F09C
:10036000F9EC02F0540EE5EC02F0F9EC02F0200E8C
:10037000E5EC02F0F9EC02F0590EE5EC02F0F9ECD4
:1003800002F04F0EE5EC02F0F9EC02F0550EE5EC50
:1003900002F0F9EC02F0520EE5EC02F0F9EC02F09A
:1003A000C20EDDEC02F0F9EC02F0430EE5EC02F0D7
:1003B000F9EC02F0480EE5EC02F0F9EC02F04F0E19
:1003C000E5EC02F0F9EC02F0490EE5EC02F0F9EC94
:1003D00002F0430EE5EC02F0F9EC02F0450EE5EC1C
:1003E00002F0F9EC02F082AA77D0010EDDEC02F007
:1003F000F9EC02F0820EDDEC02F0F9EC02F0530EA3
:10040000E5EC02F0F9EC02F0450EE5EC02F0F9EC57
:1004100002F04C0EE5EC02F0F9EC02F0450EE5ECD2
:1004200002F0F9EC02F0430EE5EC02F0F9EC02F018
:10043000540EE5EC02F0F9EC02F0450EE5EC02F0AA
:10044000F9EC02F0440EE5EC02F0F9EC02F0C20E19
:10045000DDEC02F0F9EC02F0430EE5EC02F0F9EC11
:1004600002F0410EE5EC02F0F9EC02F0500EE5EC82
:1004700002F0F9EC02F0500EE5EC02F0F9EC02F0BB
:10048000550EE5EC02F0F9EC02F0430EE5EC02F05B
:10049000F9EC02F0430EE5EC02F0F9EC02F0490E43
:1004A000E5EC02F0F9EC02F04F0EE5EC02F0F9ECAD
:1004B00002F04E0EE5EC02F0F9EC02F0EDEC02F089
:1004C000EDEC02F0EDEC02F0EDEC02F0EDEC02F000
:1004D000EDEC02F011EC03F082AC26D7010EDDEC5E
:1004E00002F0F9EC02F0820EDDEC02F0F9EC02F021
:1004F000530EE5EC02F0F9EC02F0450EE5EC02F0EB
:10050000F9EC02F04C0EE5EC02F0F9EC02F0450ECD
:10051000E5EC02F0F9EC02F0430EE5EC02F0F9EC48
:1005200002F0540EE5EC02F0F9EC02F0450EE5ECB9
:1005300002F0F9EC02F0440EE5EC02F0F9EC02F006
:10054000C20EDDEC02F0F9EC02F0450EE5EC02F033
:10055000F9EC02F0530EE5EC02F0F9EC02F0500E6B
:10056000E5EC02F0F9EC02F0520EE5EC02F0F9ECE9
:1005700002F0450EE5EC02F0F9EC02F0530EE5EC6A
:1005800002F0F9EC02F0530EE5EC02F0F9EC02F0A7
:100590004F0EE5EC02F0F9EC02F0EDEC02F0EDECC0
:1005A00002F0EDEC02F0EDEC02F0EDEC02F0EDEC1F
:1005B00002F011EC03F094EF01F0836E81908192D0
:1005C000818405EC03F081941200836E8180819216
:1005D000818405EC03F081941200070ED56EFC0EA9
:1005E000D76EB60ED66EF294D58EF2A4FED7D59EF7
:1005F0001200080ED56E3C0ED76EB00ED66EF29479
:10060000D58EF2A4FED7D59E1200080ED56EFC0E34
:10061000D76E180ED66EF294D58EF2A4FED7D59E64
:100620001200010EDDEC02F0F9EC02F0820EDDECBE
:1006300002F0F9EC02F0500EE5EC02F0F9EC02F0F9
:100640004C0EE5EC02F0F9EC02F0410EE5EC02F0A4
:10065000F9EC02F0430EE5EC02F0F9EC02F0200EAA
:10066000E5EC02F0F9EC02F0590EE5EC02F0F9ECE1
:1006700002F04F0EE5EC02F0F9EC02F0550EE5EC5D
:1006800002F0F9EC02F0520EE5EC02F0F9EC02F0A7
:10069000C20EDDEC02F0F9EC02F0430EE5EC02F0E4
:1006A000F9EC02F0550EE5EC02F0F9EC02F0500E18
:1006B000E5EC02F0F9EC02F082A2FED7010EDDECCF
:1006C00002F0F9EC02F0820EDDEC02F0F9EC02F03F
:1006D000430EE5EC02F0F9EC02F0550EE5EC02F009
:1006E000F9EC02F0500EE5EC02F0F9EC02F0200E0D
:1006F000E5EC02F0F9EC02F0460EE5EC02F0F9EC64
:1007000002F04F0EE5EC02F0F9EC02F0550EE5ECCC
:1007100002F0F9EC02F04E0EE5EC02F0F9EC02F01A
:10072000440EE5EC02F0F9EC02F0EDEC02F0EDEC39
:1007300002F0EDEC02F0EDEC02F0EDEC02F0EDEC8D
:1007400002F0010EDDEC02F0F9EC02F0820EDDECBD
:1007500002F0F9EC02F0500EE5EC02F0F9EC02F0D8
:10076000520EE5EC02F0F9EC02F04F0EE5EC02F06F
:10077000F9EC02F0450EE5EC02F0F9EC02F0530E54
:10078000E5EC02F0F9EC02F0530EE5EC02F0F9ECC6
:1007900002F0200EE5EC02F0F9EC02F0490EE5EC77
:1007A00002F0F9EC02F0530EE5EC02F0F9EC02F085
:1007B000C20EDDEC02F0F9EC02F0490EE5EC02F0BD
:1007C000F9EC02F04E0EE5EC02F0F9EC02F0200E2E
:1007D000E5EC02F0F9EC02F0500EE5EC02F0F9EC79
:1007E00002F0520EE5EC02F0F9EC02F04F0EE5ECEF
:1007F00002F0F9EC02F0470EE5EC02F0F9EC02F041
:10080000520EE5EC02F0F9EC02F0450EE5EC02F0D8
:10081000F9EC02F0530EE5EC02F0F9EC02F0530EA5
:10082000E5EC02F0F9EC02F082A4FED7818C010E17
:10083000DDEC02F0F9EC02F0820EDDEC02F0F9ECF6
:1008400002F0570EE5EC02F0F9EC02F0410EE5EC97
:1008500002F0F9EC02F0540EE5EC02F0F9EC02F0D3
:10086000450EE5EC02F0F9EC02F0520EE5EC02F078
:10087000F9EC02F0200EE5EC02F0F9EC02F0490E82
:10088000E5EC02F0F9EC02F0530EE5EC02F0F9ECC5
:1008900002F0C20EDDEC02F0F9EC02F0530EE5ECD2
:1008A00002F0F9EC02F0550EE5EC02F0F9EC02F082
:1008B000460EE5EC02F0F9EC02F0460EE5EC02F033
:1008C000F9EC02F0490EE5EC02F0F9EC02F0430E0F
:1008D000E5EC02F0F9EC02F0490EE5EC02F0F9EC7F
:1008E00002F0450EE5EC02F0F9EC02F04E0EE5ECFC
:1008F00002F0F9EC02F0540EE5EC02F0F9EC02F033
:10090000EDEC02F0EDEC02F0EDEC02F0EDEC02F0BB
:10091000EDEC02F0EDEC02F0010EDDEC02F0F9EC92
:1009200002F0819C818E820EDDEC02F0F9EC02F087
:10093000500EE5EC02F0F9EC02F0520EE5EC02F09C
:10094000F9EC02F04F0EE5EC02F0F9EC02F0430E88
:10095000E5EC02F0F9EC02F0450EE5EC02F0F9EC02
:1009600002F0530EE5EC02F0F9EC02F0530EE5EC68
:1009700002F0F9EC02F0C20EDDEC02F0F9EC02F04C
:10098000490EE5EC02F0F9EC02F0530EE5EC02F052
:10099000F9EC02F0200EE5EC02F0F9EC02F0490E61
:1009A000E5EC02F0F9EC02F04E0EE5EC02F0F9ECA9
:1009B00002F0200EE5EC02F0F9EC02F0500EE5EC4E
:1009C00002F0F9EC02F0520EE5EC02F0F9EC02F064
:1009D0004F0EE5EC02F0F9EC02F0470EE5EC02F008
:1009E000F9EC02F0819E82A6FED7818C010EDDEC2F
:1009F00002F0F9EC02F0820EDDEC02F0F9EC02F00C
:100A0000500EE5EC02F0F9EC02F04F0EE5EC02F0CE
:100A1000F9EC02F0570EE5EC02F0F9EC02F0440EAE
:100A2000E5EC02F0F9EC02F0450EE5EC02F0F9EC31
:100A300002F0520EE5EC02F0F9EC02F0200EE5ECCB
:100A400002F0F9EC02F0530EE5EC02F0F9EC02F0E2
:100A5000490EE5EC02F0F9EC02F0C20EDDEC02F01A
:100A6000F9EC02F0530EE5EC02F0F9EC02F0550E51
:100A7000E5EC02F0F9EC02F0460EE5EC02F0F9ECE0
:100A800002F0460EE5EC02F0F9EC02F0490EE5EC5E
:100A900002F0F9EC02F0430EE5EC02F0F9EC02F0A2
:100AA000490EE5EC02F0F9EC02F0450EE5EC02F03F
:100AB000F9EC02F04E0EE5EC02F0F9EC02F0540E07
:100AC000E5EC02F0F9EC02F0EDEC02F0EDEC02F0F6
:100AD000EDEC02F0EDEC02F0EDEC02F0EDEC02F0EA
:100AE000010EDDEC02F0F9EC02F0819C818E820EA9
:100AF000DDEC02F0F9EC02F0500EE5EC02F0F9EC5E
:100B000002F0520EE5EC02F0F9EC02F04F0EE5ECCB
:100B100002F0F9EC02F0430EE5EC02F0F9EC02F021
:100B2000450EE5EC02F0F9EC02F0530EE5EC02F0B4
:100B3000F9EC02F0530EE5EC02F0F9EC02F0C20E13
:100B4000DDEC02F0F9EC02F0490EE5EC02F0F9EC14
:100B500002F0530EE5EC02F0F9EC02F0200EE5ECA9
:100B600002F0F9EC02F0490EE5EC02F0F9EC02F0CB
:100B70004E0EE5EC02F0F9EC02F0200EE5EC02F08E
:100B8000F9EC02F0500EE5EC02F0F9EC02F0520E36
:100B9000E5EC02F0F9EC02F04F0EE5EC02F0F9ECB6
:100BA00002F0470EE5EC02F0F9EC02F0819E82A81B
:100BB000FED7818C010EDDEC02F0F9EC02F0820E22
:100BC000DDEC02F0F9EC02F0530EE5EC02F0F9EC8A
:100BD00002F0550EE5EC02F0F9EC02F0470EE5EC00
:100BE00002F0F9EC02F0410EE5EC02F0F9EC02F053
:100BF000520EE5EC02F0F9EC02F0200EE5EC02F00A
:100C0000F9EC02F0490EE5EC02F0F9EC02F0530EBB
:100C1000E5EC02F0F9EC02F0C20EDDEC02F0F9ECCA
:100C200002F0530EE5EC02F0F9EC02F0550EE5ECA3
:100C300002F0F9EC02F0460EE5EC02F0F9EC02F0FD
:100C4000460EE5EC02F0F9EC02F0490EE5EC02F09C
:100C5000F9EC02F0430EE5EC02F0F9EC02F0490E7B
:100C6000E5EC02F0F9EC02F0450EE5EC02F0F9ECEF
:100C700002F04E0EE5EC02F0F9EC02F0540EE5EC59
:100C800002F0F9EC02F0EDEC02F0EDEC02F0EDEC2C
:100C900002F0EDEC02F0EDEC02F0EDEC02F0010EF2
:100CA000DDEC02F0F9EC02F0819C818E820EDDEC2D
:100CB00002F0F9EC02F0500EE5EC02F0F9EC02F073
:100CC000520EE5EC02F0F9EC02F04F0EE5EC02F00A
:100CD000F9EC02F0430EE5EC02F0F9EC02F0450EFF
:100CE000E5EC02F0F9EC02F0530EE5EC02F0F9EC61
:100CF00002F0530EE5EC02F0F9EC02F0C20EDDEC6E
:100D000002F0F9EC02F0490EE5EC02F0F9EC02F029
:100D1000530EE5EC02F0F9EC02F0200EE5EC02F0E7
:100D2000F9EC02F0490EE5EC02F0F9EC02F04E0E9F
:100D3000E5EC02F0F9EC02F0200EE5EC02F0F9EC43
:100D400002F0500EE5EC02F0F9EC02F0520EE5EC88
:100D500002F0F9EC02F04F0EE5EC02F0F9EC02F0D3
:100D6000470EE5EC02F0F9EC02F0819E010EDDEC9D
:100D700002F0F9EC02F0820EDDEC02F0F9EC02F088
:100D8000520EE5EC02F0F9EC02F0450EE5EC02F053
:100D9000F9EC02F0410EE5EC02F0F9EC02F0440E41
:100DA000E5EC02F0F9EC02F0590EE5EC02F0F9EC9A
:100DB00002F0200EE5EC02F0F9EC02F0540EE5EC46
:100DC00002F0F9EC02F04F0EE5EC02F0F9EC02F063
:100DD000C20EDDEC02F0F9EC02F0530EE5EC02F08D
:100DE000F9EC02F0450EE5EC02F0F9EC02F0520EDF
:100DF000E5EC02F0F9EC02F0560EE5EC02F0F9EC4D
:100E000002F0450EE5EC02F0F9EC02F0818C17ECF3
:100E100007F0819C1200070ED56E6C0ED76E4C0E3B
:100E2000D66EF294D58EF2A4FED7D59E1200070E90
:100E3000D56E7B0ED76E940ED66EF294D58EF2A43C
:060E4000FED7D59E120052
:020000040030CA
:0100010022DC
:0100020002FB
:010003000EEE
:010006008079
:00000001FF
